:020000020000FC
:0200000009C035
:10000E003AC040E050E00FE50DBF02E00EBF0FEF2B
:10001E000ABB07BB04BB01BB05E003BF02E008BF80
:10002E0002E009BF7894403031F0413059F042304F
:10003E0089F04330B9F00FEF0BBB08BB05BB02BB19
:10004E0028D018C00FEF0BBB08BB05BB00E002BBEE
:10005E0020D010C00FEF0BBB08BB00E005BB02BBEE
:10006E0018D008C00FEF0BBB00E008BB05BB02BBEE
:10007E0010D000C01895513021F04395433039F01F
:10008E00C2CF4A95403009F0BECF50E0BCCF51E010
:10009E00BACF65E07FE082EF8A95F1F77A95E1F7C6
:0600AE006A95D1F70895E8
:00000001FF
