:020000020000FC
:1000000001C04EC00FE502E00EBF04C0FFCFF1E01B
:10001000E2E6089524D00FEF0ABB07BBF8DF0AE041
:1000200005BF00EC0BBF7894C895533029F0902D94
:1000300031D053953196F8CF8CD050E0D99887EADB
:1000400088BBD89AD8983197C8955B30F9F2902D33
:1000500021D053953196F8CF7CD050E0D3CFD998AA
:1000600088E388BBD89AD8986CD0D9988EE088BBA2
:10007000D89AD89866D007D0D99886E088BBD89A05
:10008000D8985FD00895D99881E088BBD89AD8983D
:1000900058D00895D99A98BBD89AD89852D0089534
:1000A000829BB0CF18950FE502E00EBF04C0FFCFD2
:1000B000F1E0E0E708951BD00FEF0ABB07BBF8DFC4
:1000C000C895543029F0902DE5DF53953196F8CF3F
:1000D00040D050E0D99887EA88BBD89AD898319711
:1000E000C895002021F3902DD5DF3196F9CFD9980E
:1000F00088E388BBD89AD89824D0D9988EE088BB5A
:10010000D89AD8981ED007D0D99886E088BBD89ABC
:10011000D89817D00895D99881E088BBD89AD898F4
:1001200010D00895D99A98BBD89AD8980AD0089533
:10013000BADF189526E031E33A95F1F72A95E1F711
:10014000089524E332EF3A95F1F72A95E1F700009C
:10015000089520ED3AEC3A95F1F72A95E1F7000081
:1001600008954E504D323230363032363437330007
:0A0170004E414D414641484D490003
:00000001FF
