:020000020000FC
:1000000000C00FE502E00EBF04C0FFCFF0E0E2EF5A
:10001000089537D00FEF0ABB07BBF8DFC895533000
:1000200029F0902D49D053953196F8CF5AD050E011
:10003000D99887EA88BBD89AD8983197C8955B3009
:1000400029F0902D39D053953196F8CF4AD02DD044
:1000500050E0C895543029F0902D2ED0539531960C
:10006000F8CF3FD050E0D99887EA88BBD89AD89883
:100070003197C895002021F0902D1ED03196F9CFF0
:10008000C0CFD99888E388BBD89AD89822D0D9987D
:100090008EE088BBD89AD8981CD007D0D99886E033
:1000A00088BBD89AD89815D00895D99881E088BB94
:1000B000D89AD8980ED00895D99A98BBD89AD8983B
:1000C00008D0089526E031E33A95F1F72A95E1F753
:1000D000089524E332EF3A95F1F72A95E1F700000D
:1000E000089520ED3AEC3A95F1F72A95E1F70000F2
:1000F00008954E504D323230363032363437334E2A
:0A010000414D414641484D490000C1
:00000001FF
